:020000040000FA
:0400000027EF36F0C0
:106C4E00000159EF38F092680E0EC16E920EC06EB2
:106C5E00000EC46E000EC36E1200000E2E1A000E31
:106C6E002F1A000E301A800E311A2AC01AF02BC0BD
:106C7E001BF02CC01CF02DC01DF02EC01EF02FC01E
:106C8E001FF030C020F031C021F0A0EC3DF01AC052
:106C9E002AF01BC02BF01CC02CF01DC02DF01200D2
:106CAE00820ED56E000E046E000E036E6DEF36F082
:106CBE00FA0ED76E230ED66EF2A468EF36F06AEF98
:106CCE0036F063EF36F0F294034A042A0150035C67
:106CDE0002500458D8A076EF36F078EF36F05FEF1A
:106CEE0036F0000ED56E120094941D0ECB6E01C0C0
:106CFE0003F002C004F004340432033204340432CC
:106D0E0003320350BE6E01C003F002C004F0033A1A
:106D1E00043AF00E041603500F0B0412F00E031675
:106D2E00300E0316000E04160C0E0310016E0450E6
:106D3E00026E01C0BDFF070ECA6E000ECC6ECA8475
:106D4E00120001C003F0D8900336D89003363C0EE3
:106D5E000316C250C30B0310C26E380EC012C050C1
:106D6E00F80B0609C06EC2B2BFEF36F0C3EF36F0B5
:106D7E00036A032AC4EF36F0036A010E046E032A77
:106D8E00CBEF36F0D8900436032EC9EF36F0C2B0F2
:106D9E00D3EF36F0D7EF36F0056A052AD8EF36F086
:106DAE00056A010E066E052ADFEF36F0D89006361C
:106DBE00052EDDEF36F006500410C212C2B2EAEF15
:106DCE0036F0ECEF36F0E5EF36F0C350C4CF03F0FB
:106DDE00046A03C004F0036A0310076E0450086EC1
:106DEE0007C001F008C002F012002C342D34336EAF
:106DFE003350D8A405EF37F007EF37F011EF37F027
:106E0E00000E2A6E000E2B6E000E2C6E000E2D6ED6
:106E1E007EEF37F02AC02EF02BC02FF02CC030F0B2
:106E2E002DC031F0200E21EF37F0D89031323032B4
:106E3E002F322E32E82E1CEF37F02E50326E2C8E63
:106E4E00FF0E2A16FF0E2B16FF0E2C16000E2D16F9
:106E5E00960E335E33BE38EF37F036EF37F04EEF27
:106E6E0037F03350800A970FD8B040EF37F042EF2B
:106E7E0037F044EF37F007EF37F0D8902D322C3241
:106E8E002B322A32333E44EF37F066EF37F01F0EC7
:106E9E00336454EF37F056EF37F05EEF37F007EF0D
:106EAE0037F0D8902A362B362C362D363306335003
:106EBE00D8A464EF37F066EF37F058EF37F0325062
:106ECE00D8B46CEF37F06EEF37F076EF37F02D1E4B
:106EDE002C1E2B1E2A6C000E2B222C222D222AC099
:106EEE002AF02BC02BF02CC02CF02DC02DF0120050
:106EFE00096E0950D8B486EF37F088EF37F0AAEF55
:106F0E0037F004BE8FEF37F08DEF37F0AAEF37F082
:106F1E0001C005F002C006F003C007F004C008F07F
:106F2E00051E061E071E081E052A000E0622072233
:106F3E00082205C00BF006C00CF007C00DF008C00B
:106F4E000EF0B2EF37F001C00BF002C00CF003C030
:106F5E000DF004C00EF00150021003100410D8A45E
:106F6E00BBEF37F0BDEF37F0C7EF37F0000E016E15
:106F7E00000E026E000E036E000E046E58EF38F017
:106F8E00960E0A6ED1EF37F00A2AD8900E320D32D5
:106F9E000C320B32000E0B14056E000E0C14066E26
:106FAE00000E0D14076EFE0E0E14086E0550061020
:106FBE0007100810D8A4E6EF37F0E8EF37F0CBEF64
:106FCE0037F0F6EF37F00A2A010E0B26000E0C22D0
:106FDE000D220E22D8900E320D320C320B32000ED4
:106FEE000B14056E000E0C14066E000E0D14076EBB
:106FFE00FF0E0E14086E0550061007100810D8A4C8
:10700E000BEF38F00DEF38F0EAEF37F015EF38F000
:10701E000A06D8900B360C360D360E360DBE1AEF0C
:10702E0038F01CEF38F024EF38F0020E0A6022EF31
:10703E0038F024EF38F00FEF38F00AB029EF38F0BF
:10704E002BEF38F02CEF38F00D9ED8900A320AC094
:10705E0005F0066A076A086A05C008F0076A066A3C
:10706E00056A05500B1206500C1207500D120850EF
:10707E000E120950D8B446EF38F048EF38F050EF02
:10708E0038F004BE4FEF38F04DEF38F050EF38F0D7
:10709E000E8E0BC001F00CC002F00DC003F00EC03E
:1070AE0004F012002AEC36F00A0E0001646FD70EBF
:1070BE00656FA30E666F3C0E676F330E686F330EEF
:1070CE00696F330E6A6F3F0E6B6F820E6C6FA80E78
:1070DE006D6F7B0E6E6F380E6F6F020E796F000E36
:1070EE00786F000E8C6F000E8D6F000E8E6F000E7F
:1070FE008F6F1B0E886F2F0E896F5D0E8A6F3D0E80
:10710E008B6F000E826F000E836F000E846F000E69
:10711E00856F000E026E000E016E7BEC36F0000ED7
:10712E00026E000E016EA8EC36F001C086F002C0B1
:10713E0087F000018651785D4B6E875179594C6E00
:10714E004BC001F04CC002F0000E02BEFF0E036EEB
:10715E00046E010E7FEC37F001C092F002C093F086
:10716E0003C094F004C095F092C001F093C002F0F9
:10717E0094C003F095C004F064C005F065C006F03D
:10718E0066C007F067C008F08BEC3BF001C07AF0E8
:10719E0002C07BF003C07CF004C07DF068C005F037
:1071AE0069C006F06AC007F06BC008F092C001F02B
:1071BE0093C002F094C003F095C004F08BEC3BF04A
:1071CE0001C070F002C071F003C072F004C073F021
:1071DE0088C005F089C006F08AC007F08BC008F0A1
:1071EE0070C001F071C002F072C003F073C004F001
:1071FE008BEC3BF001C01AF002C01BF003C01CF078
:10720E0004C01DF08CC01EF08DC01FF08EC020F08B
:10721E008FC021F0A0EC3DF01AC08CF01BC08DF099
:10722E001CC08EF01DC08FF06CC005F06DC006F056
:10723E006EC007F06FC008F082C02EF083C02FF032
:10724E0084C030F085C031F092C02AF093C02BF08C
:10725E0094C02CF095C02DF034EC36F02AC001F01D
:10726E002BC002F02CC003F02DC004F08BEC3BF0D1
:10727E0001C032F002C033F003C034F004C035F068
:10728E0088C036F089C037F08AC038F08BC039F02C
:10729E00BEEC39F032C07EF033C07FF034C080F0E7
:1072AE0035C081F092C082F093C083F094C084F018
:1072BE0095C085F08CC01EF08DC01FF08EC020F0E2
:1072CE008FC021F07AC01AF07BC01BF07CC01CF07E
:1072DE007DC01DF0A0EC3DF01AC074F01BC075F01F
:1072EE001CC076F01DC077F07EC01EF07FC01FF070
:1072FE0080C020F081C021F074C01AF075C01BF060
:10730E0076C01CF077C01DF0A0EC3DF01AC02AF03C
:10731E001BC02BF01CC02CF01DC02DF0FCEC36F069
:10732E002AC090F02BC091F0000191BFA8EF39F068
:10733E00915109E1790E905DD8A0A8EF39F0AAEF2E
:10734E0039F0AEEF39F0000E916F780E906F90C05D
:10735E0001F091C002F07BEC36F0000E026E320EA0
:10736E00016E57EC36F096EF38F000EF00F0355026
:10737E00800B426E35503524496E34AEC9EF39F06C
:10738E00CBEF39F0CCEF39F049804950D8B4D2EF79
:10739E0039F0D4EF39F0E9EF39F04928D8A4DAEF13
:1073AE0039F0DCEF39F0E4EF39F0000E326E000EFA
:1073BE00336E000E346E000E356E348E000E356E4A
:1073CE00F1EF39F0000E326E000E336E000E346E99
:1073DE00000E356E3950800B421A395039244A6EE0
:1073EE0038AEFCEF39F0FEEF39F0FFEF39F04A809E
:1073FE004A50D8B405EF3AF007EF3AF01CEF3AF0E6
:10740E004A28D8A40DEF3AF00FEF3AF017EF3AF002
:10741E00000E366E000E376E000E386E000E396E90
:10742E00388E000E396E24EF3AF0000E366E000ED6
:10743E00376E000E386E000E396E3650371038101B
:10744E003910D8A42DEF3AF02FEF3AF047EF3AF07B
:10745E00000E326E000E336E000E346E000E356E60
:10746E00800E34127F0E35124250351232C032F079
:10747E0033C033F034C034F035C035F08AEF3BF012
:10748E004950D8A44DEF3AF04FEF3AF059EF3AF099
:10749E00000E326E000E336E000E346E000E356E20
:1074AE008AEF3BF04A5049C03AF03B6A3A5E000E12
:1074BE003B5A7F0E3A24436E000E3B20446E32C080
:1074CE003EF033C03FF034C040F035C041F0000E06
:1074DE00326E000E336E000E346E000E356E000EE0
:1074EE00456E000E466E000E476E000E486E000E84
:1074FE004A6EBAEF3AF04A50D8B488EF3AF08AEFB3
:10750E003AF0A1EF3AF0D8903E363F36403641364B
:10751E00D890323633363436353648AE99EF3AF0A7
:10752E009BEF3AF09CEF3AF03280D89045364636D3
:10753E004736483636503E5C37503F5838504058E4
:10754E0039504158D8A0AEEF3AF0B0EF3AF0B9EF5B
:10755E003AF0488C36503E5E37503F5A3850405ABB
:10756E003950415A4A2A190E4A64C0EF3AF0C2EF16
:10757E003AF082EF3AF03E503F1040104110D8B42E
:10758E00CBEF3AF0CDEF3AF0E5EF3AF04580E5EF8C
:10759E003AF0D890323633363436353648AEDAEFE6
:1075AE003AF0DCEF3AF0DDEF3AF03280D890453623
:1075BE004636473648364306D8A0440634AEEAEF80
:1075CE003AF0ECEF3AF0D0EF3AF0000E4A6E48AED9
:1075DE00F3EF3AF0F5EF3AF019EF3BF0FF0E4514EA
:1075EE003A6EFF0E46143B6EFF0E47143C6E7F0E36
:1075FE0048143D6E3A503B103C103D10D8B40AEF83
:10760E003BF00CEF3BF010EF3BF0010E4A6E19EF22
:10761E003BF032A015EF3BF017EF3BF019EF3BF0CC
:10762E000CEF3BF04A50D8B41FEF3BF021EF3BF08C
:10763E0045EF3BF0010E3226000E33223422352266
:10764E0035A02CEF3BF02EEF3BF045EF3BF032C078
:10765E003AF033C03BF034C03CF035C03DF03D3421
:10766E003D323C323B323A323AC032F03BC033F01C
:10767E003CC034F03DC035F0434A442A44BE50EF7E
:10768E003BF0445008E14328D8A050EF3BF052EFB6
:10769E003BF05DEF3BF0000E446E4368000E326E21
:1076AE00000E336E000E346E000E356E44BE6AEF61
:1076BE003BF0445006E14304D8B068EF3BF06AEF6C
:1076CE003BF078EF3BF0000E446E000E436E000E62
:1076DE00326E000E336E000E346E000E356E000EDE
:1076EE00426E43C049F049A07FEF3BF081EF3BF083
:1076FE0084EF3BF0348E85EF3BF0349ED8904930CA
:10770E00356E3BEF3AF012000450800B0D6E0450B4
:10771E000424136E03AE96EF3BF098EF3BF099EF17
:10772E003BF013801350D8B49FEF3BF0A1EF3BF02A
:10773E00B4EF3BF01328D8A4A7EF3BF0A9EF3BF032
:10774E00B1EF3BF0000E016E000E026E000E036EE6
:10775E00000E046E038EBCEF3BF0000E016E000EA9
:10776E00026E000E036E000E046E0850800B0D1A92
:10777E0008500824126E07AEC7EF3BF0C9EF3BF07E
:10778E00CAEF3BF012801250D8B4D0EF3BF0D2EFDC
:10779E003BF0E5EF3BF01228D8A4D8EF3BF0DAEF40
:1077AE003BF0E2EF3BF0000E056E000E066E000E93
:1077BE00076E000E086E078EEDEF3BF0000E056EA5
:1077CE00000E066E000E076E000E086E1250D8B434
:1077DE00F3EF3BF0F5EF3BF0FDEF3BF01350D8A489
:1077EE00FBEF3BF0FDEF3BF007EF3CF0000E016EC0
:1077FE00000E026E000E036E000E046E9FEF3DF043
:10780E0007500102F3CF18F0F4CF19F018500E6E96
:10781E000F6A106A116A1950146E156A166A176A81
:10782E0006500202F3CF18F0F4CF19F018500E26BE
:10783E00000E0F221022112219501426000E1522AE
:10784E001622172205500302F3CF18F0F4CF19F0C9
:10785E0018500E26000E0F22102211221950142637
:10786E00000E15221622172210C011F00FC010F0B4
:10787E000EC00FF00E6A05500202F3CF18F0F4CFCF
:10788E0019F018500E2619500F22000E1022000E5D
:10789E00112206500102F3CF18F0F4CF19F0185050
:1078AE000E2619500F22000E1022000E112210C0AB
:1078BE0011F00FC010F00EC00FF00E6A055001024D
:1078CE00F3CF18F0F4CF19F018500E2619500F22DE
:1078DE00000E1022000E112207500202F3CF18F0F4
:1078EE00F4CF19F01850142619501522000E162236
:1078FE00000E172206500302F3CF18F0F4CF19F042
:10790E001850142619501522000E1622000E17229A
:10791E0007500302F3CF18F0F4CF19F01850096E88
:10792E0019500A6E0B6A0C6A0BC00CF00AC00BF0F1
:10793E0009C00AF0096A095014260A5015220B5084
:10794E0016220C5017220EC009F00FC00AF010C0FC
:10795E000BF011C00CF0190EBAEF3CF0D8900C32AF
:10796E000B320A320932E82EB5EF3CF009501426DC
:10797E000A5015220B5016220C50172210C011F06F
:10798E000FC010F00EC00FF00E6A125013C009F0A7
:10799E000A6A0926000E0A22820E0924186EFF0EAC
:1079AE000A20196EF0EF3CF0D890143615361636C4
:1079BE00173611AEE5EF3CF0E7EF3CF0E8EF3CF0A8
:1079CE001480D8900E360F36103611361806D8A001
:1079DE00190616AEF5EF3CF0F7EF3CF0DBEF3CF09E
:1079EE00000E126E11AEFEEF3CF000EF3DF024EFF4
:1079FE003DF0FF0E0E14096EFF0E0F140A6EFF0EF1
:107A0E0010140B6E7F0E11140C6E09500A100B1011
:107A1E000C10D8B415EF3DF017EF3DF01BEF3DF015
:107A2E00010E126E24EF3DF014A020EF3DF022EF78
:107A3E003DF024EF3DF017EF3DF01250D8B42AEF91
:107A4E003DF02CEF3DF050EF3DF0010E1426000EF0
:107A5E0015221622172217A037EF3DF039EF3DF011
:107A6E0050EF3DF014C009F015C00AF016C00BF02F
:107A7E0017C00CF00C340C320B320A32093209C02A
:107A8E0014F00AC015F00BC016F00CC017F0184A0F
:107A9E00192A19BE5BEF3DF0195008E11828D8A03D
:107AAE005BEF3DF05DEF3DF067EF3DF0000E146EC5
:107ABE00000E156E800E166E7F0E176E95EF3DF052
:107ACE0019BE74EF3DF0195006E11804D8B072EFEC
:107ADE003DF074EF3DF080EF3DF0000E146E000EA1
:107AEE00156E000E166E000E176E000E0D6E95EFD3
:107AFE003DF018C013F0FF0E1416FF0E15167F0E74
:107B0E001616000E171613A08FEF3DF091EF3DF0F5
:107B1E0092EF3DF0168ED8901330176E0D5017124F
:107B2E0014C001F015C002F016C003F017C004F027
:107B3E0012001D50800B266E1D501D24286E1CAE8B
:107B4E00ABEF3DF0ADEF3DF0AEEF3DF028802850AD
:107B5E00D8B4B4EF3DF0B6EF3DF0CBEF3DF02828B2
:107B6E00D8A4BCEF3DF0BEEF3DF0C6EF3DF0000EE9
:107B7E001A6E000E1B6E000E1C6E000E1D6E1C8EFD
:107B8E00000E1D6ED3EF3DF0000E1A6E000E1B6E32
:107B9E00000E1C6E000E1D6E2150800B276E26509F
:107BAE002718D8B4DDEF3DF0DFEF3DF0E0EF3DF00C
:107BBE00268C21502124276E20AEE8EF3DF0EAEF0F
:107BCE003DF0EBEF3DF027802750D8B4F1EF3DF0BC
:107BDE00F3EF3DF008EF3EF02728D8A4F9EF3DF083
:107BEE00FBEF3DF003EF3EF0000E1E6E000E1F6E1B
:107BFE00000E206E000E216E208E000E216E10EFF4
:107C0E003EF0000E1E6E000E1F6E000E206E000E59
:107C1E00216E2850275CD8B017EF3EF019EF3EF0DA
:107C2E0040EF3EF026AC1EEF3EF020EF3EF022EF8E
:107C3E003EF0800E261A28C029F027C028F029C051
:107C4E0027F01AC029F01EC01AF029C01EF01BC062
:107C5E0029F01FC01BF029C01FF01CC029F020C046
:107C6E001CF029C020F01DC029F021C01DF029C034
:107C7E0021F0000E296E285027C022F0236A225EC2
:107C8E00000E235A23BE55EF3EF0235009E11A0E83
:107C9E00225CD8A055EF3EF057EF3EF08EEF3EF04F
:107CAE001A501B101C101D10D8A460EF3EF063EF8D
:107CBE003EF0010E64EF3EF0000E296E000E1A6EBD
:107CCE00000E1B6E000E1C6E000E1D6E27C028F0DF
:107CDE0097EF3EF029A076EF3EF078EF3EF07EEF84
:107CEE003EF0D89029300109296E80EF3EF0D890F1
:107CFE0029321AA085EF3EF087EF3EF088EF3EF076
:107D0E00298E1D341D321C321B321A32282A27505E
:107D1E00285CD8A095EF3EF097EF3EF071EF3EF065
:107D2E0026BC9CEF3EF09EEF3EF0DEEF3EF028507C
:107D3E00D8A4A4EF3EF0A6EF3EF0B0EF3EF0000E5A
:107D4E001A6E000E1B6E000E1C6E000E1D6EFFEFE7
:107D5E003FF01E501A261F501B2220501C2221506D
:107D6E001D221DA0BDEF3EF0BFEF3EF06BEF3FF0CA
:107D7E0029A0C4EF3EF0C6EF3EF0CCEF3EF0D89017
:107D8E0029300109296ECEEF3EF0D89029321AA083
:107D9E00D3EF3EF0D5EF3EF0D6EF3EF0298E1D34F8
:107DAE001D321C321B321A32282A6BEF3FF01E5046
:107DBE001A5C1F501B5820501C581D50800A226EF2
:107DCE002150800A2258D8B0EFEF3EF0F1EF3EF08E
:107DDE001CEF3FF01A501E5C226E1B501F58236E74
:107DEE001C502058246E1D502158256EFF0E222443
:107DFE001A6EFF0E23201B6EFF0E24201C6EFF0E2C
:107E0E0025201D6E800E261A296C2950D8A412EF3B
:107E1E003FF014EF3FF024EF3FF0010E1A26000E54
:107E2E001B221C221D2224EF3FF01E501A5E1F50F3
:107E3E001B5A20501C5A21501D5A1A501B101C1030
:107E4E001D10D8A42DEF3FF02FEF3FF064EF3FF061
:107E5E002950D8A435EF3FF037EF3FF064EF3FF0F5
:107E6E00000E1A6E000E1B6E000E1C6E000E1D6EA6
:107E7E00FFEF3FF0D8901A361B361C361D3629AE52
:107E8E004BEF3FF04DEF3FF04EEF3FF01A8029A041
:107E9E0053EF3FF055EF3FF059EF3FF0D8802936C2
:107EAE005BEF3FF0D89029362850D8B461EF3FF001
:107EBE0063EF3FF064EF3FF028061CAE69EF3FF032
:107ECE006BEF3FF041EF3FF0000E276E29AE72EFE1
:107EDE003FF074EF3FF08CEF3FF029C022F07F0EA1
:107EEE002216D8B47DEF3FF07FEF3FF083EF3FF0E7
:107EFE00010E276E8CEF3FF01AA088EF3FF08AEF4D
:107F0E003FF08CEF3FF07FEF3FF02750D8B492EF69
:107F1E003FF094EF3FF0BFEF3FF0010E1A26000E38
:107F2E001B221C221D221DA09FEF3FF0A1EF3FF050
:107F3E00BFEF3FF01AC022F01BC023F01CC024F08C
:107F4E001DC025F02534253224322332223222C0A0
:107F5E001AF023C01BF024C01CF025C01DF02828E9
:107F6E00D8B4BCEF3FF0BEEF3FF0BFEF3FF0282A92
:107F7E002828D8B4C5EF3FF0C7EF3FF0CFEF3FF062
:107F8E002850D8A4CDEF3FF0CFEF3FF0E1EF3FF018
:107F9E00000E1A6E000E1B6E000E1C6E000E1D6E75
:107FAE002850D8A4DDEF3FF0DFEF3FF0E1EF3FF0D8
:107FBE00000E266E28A0E6EF3FF0E8EF3FF0EBEF65
:107FCE003FF01C8EECEF3FF01C9ED89028301D6EBB
:107FDE0026AEF4EF3FF0F6EF3FF0F7EF3FF01D8ED9
:107FEE001AC01AF01BC01BF01CC01CF01DC01DF0E7
:027FFE0012006F
:020000040020DA
:08000000FFFFFFFFFFFFFFFF00
:020000040030CA
:0E000000040E1F1FFF8385FF0FC00FE00F408F
:00000001FF
